{
  "_format": "hh-sol-artifact-1",
  "contractName": "Youtube",
  "sourceName": "contracts/Youtube.sol",
  "abi": [
    {
      "inputs": [],
      "stateMutability": "nonpayable",
      "type": "constructor"
    },
    {
      "anonymous": false,
      "inputs": [
        {
          "indexed": false,
          "internalType": "bytes32",
          "name": "hash",
          "type": "bytes32"
        }
      ],
      "name": "UploadVideo",
      "type": "event"
    },
    {
      "inputs": [
        {
          "internalType": "string",
          "name": "name",
          "type": "string"
        }
      ],
      "name": "getAddress",
      "outputs": [
        {
          "internalType": "address",
          "name": "",
          "type": "address"
        }
      ],
      "stateMutability": "view",
      "type": "function"
    },
    {
      "inputs": [],
      "name": "getAllVideos",
      "outputs": [
        {
          "components": [
            {
              "internalType": "address",
              "name": "owner",
              "type": "address"
            },
            {
              "internalType": "string",
              "name": "video",
              "type": "string"
            },
            {
              "internalType": "string",
              "name": "thumbnail",
              "type": "string"
            },
            {
              "internalType": "string",
              "name": "description",
              "type": "string"
            },
            {
              "internalType": "string",
              "name": "title",
              "type": "string"
            },
            {
              "internalType": "address[]",
              "name": "likes",
              "type": "address[]"
            },
            {
              "internalType": "address[]",
              "name": "views",
              "type": "address[]"
            },
            {
              "internalType": "uint256",
              "name": "id",
              "type": "uint256"
            }
          ],
          "internalType": "struct Youtube.Video[]",
          "name": "",
          "type": "tuple[]"
        }
      ],
      "stateMutability": "view",
      "type": "function"
    },
    {
      "inputs": [
        {
          "internalType": "address",
          "name": "user",
          "type": "address"
        }
      ],
      "name": "isRegistered",
      "outputs": [
        {
          "internalType": "bool",
          "name": "",
          "type": "bool"
        }
      ],
      "stateMutability": "view",
      "type": "function"
    },
    {
      "inputs": [
        {
          "internalType": "address",
          "name": "name",
          "type": "address"
        }
      ],
      "name": "isSuscribed",
      "outputs": [
        {
          "internalType": "bool",
          "name": "",
          "type": "bool"
        }
      ],
      "stateMutability": "view",
      "type": "function"
    },
    {
      "inputs": [
        {
          "internalType": "uint256",
          "name": "id",
          "type": "uint256"
        }
      ],
      "name": "likeCount",
      "outputs": [
        {
          "internalType": "uint256",
          "name": "",
          "type": "uint256"
        }
      ],
      "stateMutability": "view",
      "type": "function"
    },
    {
      "inputs": [
        {
          "internalType": "uint256",
          "name": "id",
          "type": "uint256"
        }
      ],
      "name": "likeVideo",
      "outputs": [],
      "stateMutability": "nonpayable",
      "type": "function"
    },
    {
      "inputs": [
        {
          "internalType": "string",
          "name": "",
          "type": "string"
        }
      ],
      "name": "lookup_table",
      "outputs": [
        {
          "internalType": "address",
          "name": "",
          "type": "address"
        }
      ],
      "stateMutability": "view",
      "type": "function"
    },
    {
      "inputs": [
        {
          "internalType": "address",
          "name": "name",
          "type": "address"
        }
      ],
      "name": "numSuscribers",
      "outputs": [
        {
          "internalType": "uint256",
          "name": "",
          "type": "uint256"
        }
      ],
      "stateMutability": "view",
      "type": "function"
    },
    {
      "inputs": [
        {
          "internalType": "string",
          "name": "name",
          "type": "string"
        }
      ],
      "name": "register",
      "outputs": [],
      "stateMutability": "nonpayable",
      "type": "function"
    },
    {
      "inputs": [
        {
          "internalType": "address",
          "name": "channel",
          "type": "address"
        }
      ],
      "name": "suscribe",
      "outputs": [],
      "stateMutability": "nonpayable",
      "type": "function"
    },
    {
      "inputs": [
        {
          "internalType": "string",
          "name": "_video",
          "type": "string"
        },
        {
          "internalType": "string",
          "name": "_thumbnail",
          "type": "string"
        },
        {
          "internalType": "string",
          "name": "_desc",
          "type": "string"
        },
        {
          "internalType": "string",
          "name": "_title",
          "type": "string"
        }
      ],
      "name": "uploadVideo",
      "outputs": [],
      "stateMutability": "nonpayable",
      "type": "function"
    },
    {
      "inputs": [
        {
          "internalType": "address",
          "name": "",
          "type": "address"
        }
      ],
      "name": "users",
      "outputs": [
        {
          "internalType": "string",
          "name": "name",
          "type": "string"
        }
      ],
      "stateMutability": "view",
      "type": "function"
    },
    {
      "inputs": [
        {
          "internalType": "uint256",
          "name": "",
          "type": "uint256"
        }
      ],
      "name": "videos",
      "outputs": [
        {
          "internalType": "address",
          "name": "owner",
          "type": "address"
        },
        {
          "internalType": "string",
          "name": "video",
          "type": "string"
        },
        {
          "internalType": "string",
          "name": "thumbnail",
          "type": "string"
        },
        {
          "internalType": "string",
          "name": "description",
          "type": "string"
        },
        {
          "internalType": "string",
          "name": "title",
          "type": "string"
        },
        {
          "internalType": "uint256",
          "name": "id",
          "type": "uint256"
        }
      ],
      "stateMutability": "view",
      "type": "function"
    },
    {
      "inputs": [
        {
          "internalType": "uint256",
          "name": "id",
          "type": "uint256"
        }
      ],
      "name": "viewCount",
      "outputs": [
        {
          "internalType": "uint256",
          "name": "",
          "type": "uint256"
        }
      ],
      "stateMutability": "view",
      "type": "function"
    },
    {
      "inputs": [
        {
          "internalType": "uint256",
          "name": "id",
          "type": "uint256"
        }
      ],
      "name": "viewVideo",
      "outputs": [],
      "stateMutability": "payable",
      "type": "function"
    }
  ],
  "bytecode": "0x608060405234801561001057600080fd5b50336000806101000a81548173ffffffffffffffffffffffffffffffffffffffff021916908373ffffffffffffffffffffffffffffffffffffffff1602179055506126d3806100606000396000f3fe6080604052600436106100e85760003560e01c8063bf40fac11161008a578063e6821bf511610059578063e6821bf51461031d578063e96902231461035f578063ed5f9e521461039c578063f2c298be146103d9576100e8565b8063bf40fac11461024f578063c38e34341461028c578063c3c5a547146102b7578063db83644b146102f4576100e8565b80637a5e0f1d116100c65780637a5e0f1d1461019057806383455d68146101b95780638aba7d7a146101f6578063a87430ba14610212576100e8565b80631892b044146100ed57806327260d5c1461012a57806364d493c814610153575b600080fd5b3480156100f957600080fd5b50610114600480360381019061010f9190611f4f565b610402565b60405161012191906123a6565b60405180910390f35b34801561013657600080fd5b50610151600480360381019061014c9190611f4f565b61045a565b005b34801561015f57600080fd5b5061017a60048036038101906101759190611e22565b61050f565b60405161018791906123a6565b60405180910390f35b34801561019c57600080fd5b506101b760048036038101906101b29190611e22565b61055e565b005b3480156101c557600080fd5b506101e060048036038101906101db9190611e22565b6107b5565b6040516101ed9190612349565b60405180910390f35b610210600480360381019061020b9190611f4f565b610906565b005b34801561021e57600080fd5b5061023960048036038101906102349190611e22565b610a6f565b6040516102469190612364565b60405180910390f35b34801561025b57600080fd5b5061027660048036038101906102719190611e4b565b610b15565b604051610283919061228f565b60405180910390f35b34801561029857600080fd5b506102a1610b5d565b6040516102ae9190612327565b60405180910390f35b3480156102c357600080fd5b506102de60048036038101906102d99190611e22565b610f81565b6040516102eb9190612349565b60405180910390f35b34801561030057600080fd5b5061031b60048036038101906103169190611e8c565b61105f565b005b34801561032957600080fd5b50610344600480360381019061033f9190611f4f565b611364565b604051610356969594939291906122aa565b60405180910390f35b34801561036b57600080fd5b5061038660048036038101906103819190611e4b565b6115f0565b604051610393919061228f565b60405180910390f35b3480156103a857600080fd5b506103c360048036038101906103be9190611f4f565b611639565b6040516103d091906123a6565b60405180910390f35b3480156103e557600080fd5b5061040060048036038101906103fb9190611e4b565b611691565b005b60006003828154811061043e577f4e487b7100000000000000000000000000000000000000000000000000000000600052603260045260246000fd5b9060005260206000209060080201600501805490509050919050565b600060038281548110610496577f4e487b7100000000000000000000000000000000000000000000000000000000600052603260045260246000fd5b9060005260206000209060080201905080600501339080600181540180825580915050600190039060005260206000200160009091909190916101000a81548173ffffffffffffffffffffffffffffffffffffffff021916908373ffffffffffffffffffffffffffffffffffffffff1602179055505050565b6000600160008373ffffffffffffffffffffffffffffffffffffffff1673ffffffffffffffffffffffffffffffffffffffff168152602001908152602001600020600101805490509050919050565b6002600160003373ffffffffffffffffffffffffffffffffffffffff1673ffffffffffffffffffffffffffffffffffffffff16815260200190815260200160002060000180546105ad90612556565b9050116105b957600080fd5b8073ffffffffffffffffffffffffffffffffffffffff163373ffffffffffffffffffffffffffffffffffffffff1614156105f257600080fd5b6000600160008373ffffffffffffffffffffffffffffffffffffffff1673ffffffffffffffffffffffffffffffffffffffff16815260200190815260200160002090506000600160003373ffffffffffffffffffffffffffffffffffffffff1673ffffffffffffffffffffffffffffffffffffffff168152602001908152602001600020905081600101600160003373ffffffffffffffffffffffffffffffffffffffff1673ffffffffffffffffffffffffffffffffffffffff168152602001908152602001600020908060018154018082558091505060019003906000526020600020906004020160009091909190915060008201816000019080546106f890612556565b6107039291906117aa565b50600182018160010190805461071a929190611837565b5060028201816002019080546107319291906118f4565b506003820181600301908054610748929190611a6b565b50505080600301839080600181540180825580915050600190039060005260206000200160009091909190916101000a81548173ffffffffffffffffffffffffffffffffffffffff021916908373ffffffffffffffffffffffffffffffffffffffff160217905550505050565b6000805b600160003373ffffffffffffffffffffffffffffffffffffffff1673ffffffffffffffffffffffffffffffffffffffff168152602001908152602001600020600301805490508110156108fb578273ffffffffffffffffffffffffffffffffffffffff16600160003373ffffffffffffffffffffffffffffffffffffffff1673ffffffffffffffffffffffffffffffffffffffff1681526020019081526020016000206003018281548110610897577f4e487b7100000000000000000000000000000000000000000000000000000000600052603260045260246000fd5b9060005260206000200160009054906101000a900473ffffffffffffffffffffffffffffffffffffffff1673ffffffffffffffffffffffffffffffffffffffff1614156108e8576001915050610901565b80806108f390612588565b9150506107b9565b50600090505b919050565b655af3107a400034101561094f576040517f08c379a000000000000000000000000000000000000000000000000000000000815260040161094690612386565b60405180910390fd5b60006003828154811061098b577f4e487b7100000000000000000000000000000000000000000000000000000000600052603260045260246000fd5b906000526020600020906008020190508060000160009054906101000a900473ffffffffffffffffffffffffffffffffffffffff1673ffffffffffffffffffffffffffffffffffffffff166108fc349081150290604051600060405180830381858888f19350505050158015610a05573d6000803e3d6000fd5b5080600601339080600181540180825580915050600190039060005260206000200160009091909190916101000a81548173ffffffffffffffffffffffffffffffffffffffff021916908373ffffffffffffffffffffffffffffffffffffffff1602179055505050565b6001602052806000526040600020600091509050806000018054610a9290612556565b80601f0160208091040260200160405190810160405280929190818152602001828054610abe90612556565b8015610b0b5780601f10610ae057610100808354040283529160200191610b0b565b820191906000526020600020905b815481529060010190602001808311610aee57829003601f168201915b5050505050905081565b6000600282604051610b279190612278565b908152602001604051809103902060009054906101000a900473ffffffffffffffffffffffffffffffffffffffff169050919050565b60606003805480602002602001604051908101604052809291908181526020016000905b82821015610f785783829060005260206000209060080201604051806101000160405290816000820160009054906101000a900473ffffffffffffffffffffffffffffffffffffffff1673ffffffffffffffffffffffffffffffffffffffff1673ffffffffffffffffffffffffffffffffffffffff168152602001600182018054610c0b90612556565b80601f0160208091040260200160405190810160405280929190818152602001828054610c3790612556565b8015610c845780601f10610c5957610100808354040283529160200191610c84565b820191906000526020600020905b815481529060010190602001808311610c6757829003601f168201915b50505050508152602001600282018054610c9d90612556565b80601f0160208091040260200160405190810160405280929190818152602001828054610cc990612556565b8015610d165780601f10610ceb57610100808354040283529160200191610d16565b820191906000526020600020905b815481529060010190602001808311610cf957829003601f168201915b50505050508152602001600382018054610d2f90612556565b80601f0160208091040260200160405190810160405280929190818152602001828054610d5b90612556565b8015610da85780601f10610d7d57610100808354040283529160200191610da8565b820191906000526020600020905b815481529060010190602001808311610d8b57829003601f168201915b50505050508152602001600482018054610dc190612556565b80601f0160208091040260200160405190810160405280929190818152602001828054610ded90612556565b8015610e3a5780601f10610e0f57610100808354040283529160200191610e3a565b820191906000526020600020905b815481529060010190602001808311610e1d57829003601f168201915b5050505050815260200160058201805480602002602001604051908101604052809291908181526020018280548015610ec857602002820191906000526020600020905b8160009054906101000a900473ffffffffffffffffffffffffffffffffffffffff1673ffffffffffffffffffffffffffffffffffffffff1681526020019060010190808311610e7e575b5050505050815260200160068201805480602002602001604051908101604052809291908181526020018280548015610f5657602002820191906000526020600020905b8160009054906101000a900473ffffffffffffffffffffffffffffffffffffffff1673ffffffffffffffffffffffffffffffffffffffff1681526020019060010190808311610f0c575b5050505050815260200160078201548152505081526020019060010190610b81565b50505050905090565b600080600160008473ffffffffffffffffffffffffffffffffffffffff1673ffffffffffffffffffffffffffffffffffffffff1681526020019081526020016000206000018054610fd190612556565b80601f0160208091040260200160405190810160405280929190818152602001828054610ffd90612556565b801561104a5780601f1061101f5761010080835404028352916020019161104a565b820191906000526020600020905b81548152906001019060200180831161102d57829003601f168201915b50505050509050600081511415915050919050565b60608060006040518061010001604052803373ffffffffffffffffffffffffffffffffffffffff16815260200188815260200187815260200186815260200185815260200184815260200183815260200160038054905081525090506000600160003373ffffffffffffffffffffffffffffffffffffffff1673ffffffffffffffffffffffffffffffffffffffff16815260200190815260200160002090508060020182908060018154018082558091505060019003906000526020600020906008020160009091909190915060008201518160000160006101000a81548173ffffffffffffffffffffffffffffffffffffffff021916908373ffffffffffffffffffffffffffffffffffffffff160217905550602082015181600101908051906020019061118f929190611abd565b5060408201518160020190805190602001906111ac929190611abd565b5060608201518160030190805190602001906111c9929190611abd565b5060808201518160040190805190602001906111e6929190611abd565b5060a0820151816005019080519060200190611203929190611b43565b5060c0820151816006019080519060200190611220929190611b43565b5060e082015181600701555050600382908060018154018082558091505060019003906000526020600020906008020160009091909190915060008201518160000160006101000a81548173ffffffffffffffffffffffffffffffffffffffff021916908373ffffffffffffffffffffffffffffffffffffffff16021790555060208201518160010190805190602001906112bc929190611abd565b5060408201518160020190805190602001906112d9929190611abd565b5060608201518160030190805190602001906112f6929190611abd565b506080820151816004019080519060200190611313929190611abd565b5060a0820151816005019080519060200190611330929190611b43565b5060c082015181600601908051906020019061134d929190611b43565b5060e0820151816007015550505050505050505050565b6003818154811061137457600080fd5b90600052602060002090600802016000915090508060000160009054906101000a900473ffffffffffffffffffffffffffffffffffffffff16908060010180546113bd90612556565b80601f01602080910402602001604051908101604052809291908181526020018280546113e990612556565b80156114365780601f1061140b57610100808354040283529160200191611436565b820191906000526020600020905b81548152906001019060200180831161141957829003601f168201915b50505050509080600201805461144b90612556565b80601f016020809104026020016040519081016040528092919081815260200182805461147790612556565b80156114c45780601f10611499576101008083540402835291602001916114c4565b820191906000526020600020905b8154815290600101906020018083116114a757829003601f168201915b5050505050908060030180546114d990612556565b80601f016020809104026020016040519081016040528092919081815260200182805461150590612556565b80156115525780601f1061152757610100808354040283529160200191611552565b820191906000526020600020905b81548152906001019060200180831161153557829003601f168201915b50505050509080600401805461156790612556565b80601f016020809104026020016040519081016040528092919081815260200182805461159390612556565b80156115e05780601f106115b5576101008083540402835291602001916115e0565b820191906000526020600020905b8154815290600101906020018083116115c357829003601f168201915b5050505050908060070154905086565b6002818051602081018201805184825260208301602085012081835280955050505050506000915054906101000a900473ffffffffffffffffffffffffffffffffffffffff1681565b600060038281548110611675577f4e487b7100000000000000000000000000000000000000000000000000000000600052603260045260246000fd5b9060005260206000209060080201600601805490509050919050565b6002600160003373ffffffffffffffffffffffffffffffffffffffff1673ffffffffffffffffffffffffffffffffffffffff16815260200190815260200160002060000180546116e090612556565b905011156116ed57600080fd5b6000600160003373ffffffffffffffffffffffffffffffffffffffff1673ffffffffffffffffffffffffffffffffffffffff168152602001908152602001600020905081816000019080519060200190611748929190611abd565b503360028360405161175a9190612278565b908152602001604051809103902060006101000a81548173ffffffffffffffffffffffffffffffffffffffff021916908373ffffffffffffffffffffffffffffffffffffffff1602179055505050565b8280546117b690612556565b90600052602060002090601f0160209004810192826117d85760008555611826565b82601f106117e95780548555611826565b8280016001018555821561182657600052602060002091601f016020900482015b8281111561182557825482559160010191906001019061180a565b5b5090506118339190611bcd565b5090565b8280548282559060005260206000209060040281019282156118e35760005260206000209160040282015b828111156118e2578282600082018160000190805461188090612556565b61188b9291906117aa565b5060018201816001019080546118a2929190611837565b5060028201816002019080546118b99291906118f4565b5060038201816003019080546118d0929190611a6b565b50505091600401919060040190611862565b5b5090506118f09190611bea565b5090565b828054828255906000526020600020906008028101928215611a5a5760005260206000209160080282015b82811115611a595782826000820160009054906101000a900473ffffffffffffffffffffffffffffffffffffffff168160000160006101000a81548173ffffffffffffffffffffffffffffffffffffffff021916908373ffffffffffffffffffffffffffffffffffffffff16021790555060018201816001019080546119a490612556565b6119af9291906117aa565b5060028201816002019080546119c490612556565b6119cf9291906117aa565b5060038201816003019080546119e490612556565b6119ef9291906117aa565b506004820181600401908054611a0490612556565b611a0f9291906117aa565b506005820181600501908054611a26929190611a6b565b506006820181600601908054611a3d929190611a6b565b506007820154816007015550509160080191906008019061191f565b5b509050611a679190611c41565b5090565b828054828255906000526020600020908101928215611aac5760005260206000209182015b82811115611aab578254825591600101919060010190611a90565b5b509050611ab99190611bcd565b5090565b828054611ac990612556565b90600052602060002090601f016020900481019282611aeb5760008555611b32565b82601f10611b0457805160ff1916838001178555611b32565b82800160010185558215611b32579182015b82811115611b31578251825591602001919060010190611b16565b5b509050611b3f9190611bcd565b5090565b828054828255906000526020600020908101928215611bbc579160200282015b82811115611bbb5782518260006101000a81548173ffffffffffffffffffffffffffffffffffffffff021916908373ffffffffffffffffffffffffffffffffffffffff16021790555091602001919060010190611b63565b5b509050611bc99190611bcd565b5090565b5b80821115611be6576000816000905550600101611bce565b5090565b5b80821115611c3d5760008082016000611c049190611ce7565b600182016000611c149190611d27565b600282016000611c249190611d4b565b600382016000611c349190611d6f565b50600401611beb565b5090565b5b80821115611ce357600080820160006101000a81549073ffffffffffffffffffffffffffffffffffffffff0219169055600182016000611c829190611ce7565b600282016000611c929190611ce7565b600382016000611ca29190611ce7565b600482016000611cb29190611ce7565b600582016000611cc29190611d6f565b600682016000611cd29190611d6f565b600782016000905550600801611c42565b5090565b508054611cf390612556565b6000825580601f10611d055750611d24565b601f016020900490600052602060002090810190611d239190611bcd565b5b50565b5080546000825560040290600052602060002090810190611d489190611bea565b50565b5080546000825560080290600052602060002090810190611d6c9190611c41565b50565b5080546000825590600052602060002090810190611d8d9190611bcd565b50565b6000611da3611d9e846123f2565b6123c1565b905082815260208101848484011115611dbb57600080fd5b611dc6848285612514565b509392505050565b600081359050611ddd8161266f565b92915050565b600082601f830112611df457600080fd5b8135611e04848260208601611d90565b91505092915050565b600081359050611e1c81612686565b92915050565b600060208284031215611e3457600080fd5b6000611e4284828501611dce565b91505092915050565b600060208284031215611e5d57600080fd5b600082013567ffffffffffffffff811115611e7757600080fd5b611e8384828501611de3565b91505092915050565b60008060008060808587031215611ea257600080fd5b600085013567ffffffffffffffff811115611ebc57600080fd5b611ec887828801611de3565b945050602085013567ffffffffffffffff811115611ee557600080fd5b611ef187828801611de3565b935050604085013567ffffffffffffffff811115611f0e57600080fd5b611f1a87828801611de3565b925050606085013567ffffffffffffffff811115611f3757600080fd5b611f4387828801611de3565b91505092959194509250565b600060208284031215611f6157600080fd5b6000611f6f84828501611e0d565b91505092915050565b6000611f848383611fa4565b60208301905092915050565b6000611f9c8383612187565b905092915050565b611fad816124cc565b82525050565b611fbc816124cc565b82525050565b6000611fcd82612442565b611fd7818561247d565b9350611fe283612422565b8060005b83811015612013578151611ffa8882611f78565b975061200583612463565b925050600181019050611fe6565b5085935050505092915050565b600061202b8261244d565b612035818561248e565b93508360208202850161204785612432565b8060005b8581101561208357848403895281516120648582611f90565b945061206f83612470565b925060208a0199505060018101905061204b565b50829750879550505050505092915050565b61209e816124de565b82525050565b60006120af82612458565b6120b9818561249f565b93506120c9818560208601612523565b6120d28161265e565b840191505092915050565b60006120e882612458565b6120f281856124b0565b9350612102818560208601612523565b61210b8161265e565b840191505092915050565b600061212182612458565b61212b81856124c1565b935061213b818560208601612523565b80840191505092915050565b6000612154600e836124b0565b91507f4e6f7420656e6f756768206574680000000000000000000000000000000000006000830152602082019050919050565b6000610100830160008301516121a06000860182611fa4565b50602083015184820360208601526121b882826120a4565b915050604083015184820360408601526121d282826120a4565b915050606083015184820360608601526121ec82826120a4565b9150506080830151848203608086015261220682826120a4565b91505060a083015184820360a08601526122208282611fc2565b91505060c083015184820360c086015261223a8282611fc2565b91505060e083015161224f60e086018261225a565b508091505092915050565b6122638161250a565b82525050565b6122728161250a565b82525050565b60006122848284612116565b915081905092915050565b60006020820190506122a46000830184611fb3565b92915050565b600060c0820190506122bf6000830189611fb3565b81810360208301526122d181886120dd565b905081810360408301526122e581876120dd565b905081810360608301526122f981866120dd565b9050818103608083015261230d81856120dd565b905061231c60a0830184612269565b979650505050505050565b600060208201905081810360008301526123418184612020565b905092915050565b600060208201905061235e6000830184612095565b92915050565b6000602082019050818103600083015261237e81846120dd565b905092915050565b6000602082019050818103600083015261239f81612147565b9050919050565b60006020820190506123bb6000830184612269565b92915050565b6000604051905081810181811067ffffffffffffffff821117156123e8576123e761262f565b5b8060405250919050565b600067ffffffffffffffff82111561240d5761240c61262f565b5b601f19601f8301169050602081019050919050565b6000819050602082019050919050565b6000819050602082019050919050565b600081519050919050565b600081519050919050565b600081519050919050565b6000602082019050919050565b6000602082019050919050565b600082825260208201905092915050565b600082825260208201905092915050565b600082825260208201905092915050565b600082825260208201905092915050565b600081905092915050565b60006124d7826124ea565b9050919050565b60008115159050919050565b600073ffffffffffffffffffffffffffffffffffffffff82169050919050565b6000819050919050565b82818337600083830152505050565b60005b83811015612541578082015181840152602081019050612526565b83811115612550576000848401525b50505050565b6000600282049050600182168061256e57607f821691505b6020821081141561258257612581612600565b5b50919050565b60006125938261250a565b91507fffffffffffffffffffffffffffffffffffffffffffffffffffffffffffffffff8214156125c6576125c56125d1565b5b600182019050919050565b7f4e487b7100000000000000000000000000000000000000000000000000000000600052601160045260246000fd5b7f4e487b7100000000000000000000000000000000000000000000000000000000600052602260045260246000fd5b7f4e487b7100000000000000000000000000000000000000000000000000000000600052604160045260246000fd5b6000601f19601f8301169050919050565b612678816124cc565b811461268357600080fd5b50565b61268f8161250a565b811461269a57600080fd5b5056fea2646970667358221220e74879b616df15a3be4de138f8407b5eedf716458be03bf001ca0ef4f21d199f64736f6c63430008000033",
  "linkReferences": {},
  "deployedLinkReferences": {}
}